:101E000011248FE594E09EBF8DBF84B714BE81FF7F
:101E1000D0D082E08BB988E18AB986E880BD80E1C4
:101E200089B98EE0B3D0BD9A812C912CEE24E39435
:101E300095E0D92E21E1C22E33E0F32EA0D08134DB
:101E400089F49DD08983A6D08981823819F484E0F1
:101E500092D08EC0813819F484E08DD089C083E09F
:101E60008AD086C0823419F484E19CD081C0853444
:101E700019F485E097D07CC0853549F480D0882E50
:101E80007ED0912C982A880C991C84D071C08635FC
:101E900029F484E087D080E06ED06AC0843609F0EF
:101EA0003DC06DD06CD0B82E6AD0811488E1980600
:101EB00030F4F401F7BEE89500E011E002C000E064
:101EC00011E05DD0F80181938F01BE12FACF811429
:101ED000F8E19F0618F0F401F7BEE8955BD007B66D
:101EE00000FCFDCFF401A0E0B1E08C9111962C91A3
:101EF000119790E0922B12960C01E7BEE895112401
:101F00003296A03481E0B80781F7F401D7BEE89596
:101F100007B600FCFDCFC7BEE8952AC08437B9F4E8
:101F20002ED02DD0B82E2BD035D0F401A82CAB0C50
:101F30008F010F5F1F4F84911ED0F801A012F8CFC0
:101F4000FFEF8F1A9F0ABA948B0C911C11C0853732
:101F500041F420D08EE10FD083E90DD087E00BD083
:101F600007C0813521F488E011D014D001C012D00F
:101F700080E101D063CF5D9BFECF8CB908955F9B5C
:101F8000FECF5C9901C0A8958CB1089598E191BDF0
:101F900081BD0895F4DF803219F088E0F7DFFFCFCC
:101FA00084E1E9CFCF93C82FEADFC150E9F7CF91A1
:0C1FB000F1CF80E0EBDFEE27FF27099463
:021FFE000404D9
:0400000300001E00DB
:00000001FF
