:1000000012C024C023C022C021C020C01FC01EC0F7
:100010001DC01CC01BC01AC019C018C017C016C014
:1000200015C014C013C011241FBECFE5D4E0DEBF3D
:10003000CDBF10E0A0E6B0E0ECEBF0E002C0059030
:100040000D92A037B107D9F702D036C0D9CFCF93E0
:10005000DF93CDB7DEB760970FB6F894DEBF0FBE63
:10006000CDBF10BC87E689B9539A86E880BD80E190
:10007000E0E6F0E09E012F5F3F4FD90101900D9225
:100080008A95E1F716C0F901E80FF91F40814CB9D4
:100090005E9BFECF5E9A01968F309105A4F38AEFA6
:1000A00090E0EFE3FFE13197F1F700C00000019726
:0C00B000C1F780E090E0F0CFF894FFCFA3
:1000BC0048656C6C6F20576F726C6420210A0D00C0
:00000001FF
